{
  "contractName": "Migrations",
  "abi": [
    {
      "inputs": [],
      "payable": false,
      "stateMutability": "nonpayable",
      "type": "constructor"
    },
    {
      "anonymous": false,
      "inputs": [
        {
          "indexed": false,
          "internalType": "uint256",
          "name": "completed",
          "type": "uint256"
        }
      ],
      "name": "MigrationCompleted",
      "type": "event"
    },
    {
      "anonymous": false,
      "inputs": [
        {
          "indexed": true,
          "internalType": "address",
          "name": "previousOwner",
          "type": "address"
        },
        {
          "indexed": true,
          "internalType": "address",
          "name": "newOwner",
          "type": "address"
        }
      ],
      "name": "OwnershipTransferred",
      "type": "event"
    },
    {
      "constant": true,
      "inputs": [],
      "name": "last_completed_migration",
      "outputs": [
        {
          "internalType": "uint256",
          "name": "",
          "type": "uint256"
        }
      ],
      "payable": false,
      "stateMutability": "view",
      "type": "function"
    },
    {
      "constant": true,
      "inputs": [],
      "name": "owner",
      "outputs": [
        {
          "internalType": "address",
          "name": "",
          "type": "address"
        }
      ],
      "payable": false,
      "stateMutability": "view",
      "type": "function"
    },
    {
      "constant": false,
      "inputs": [
        {
          "internalType": "uint256",
          "name": "completed",
          "type": "uint256"
        }
      ],
      "name": "setCompleted",
      "outputs": [],
      "payable": false,
      "stateMutability": "nonpayable",
      "type": "function"
    },
    {
      "constant": false,
      "inputs": [
        {
          "internalType": "address",
          "name": "new_address",
          "type": "address"
        }
      ],
      "name": "upgrade",
      "outputs": [],
      "payable": false,
      "stateMutability": "nonpayable",
      "type": "function"
    },
    {
      "constant": false,
      "inputs": [
        {
          "internalType": "address",
          "name": "newOwner",
          "type": "address"
        }
      ],
      "name": "transferOwnership",
      "outputs": [],
      "payable": false,
      "stateMutability": "nonpayable",
      "type": "function"
    }
  ],
  "bytecode": "0x608060405234801561001057600080fd5b50600080546001600160a01b03191633178082556040516001600160a01b039190911691907f8be0079c531659141344cd1fd0a4f28419497f9722a3daafe3b4186f6b6457e0908290a3610399806100696000396000f3fe608060405234801561001057600080fd5b50600436106100575760003560e01c80630900f0101461005c578063445df0ac146100845780638da5cb5b1461009e578063f2fde38b146100c2578063fdacd576146100e8575b600080fd5b6100826004803603602081101561007257600080fd5b50356001600160a01b0316610105565b005b61008c6101be565b60408051918252519081900360200190f35b6100a66101c4565b604080516001600160a01b039092168252519081900360200190f35b610082600480360360208110156100d857600080fd5b50356001600160a01b03166101d3565b610082600480360360208110156100fe57600080fd5b50356102d9565b6000546001600160a01b03163314610155576040805162461bcd60e51b815260206004820152600e60248201526d139bdd08185d5d1a1bdc9a5e995960921b604482015290519081900360640190fd5b6000819050806001600160a01b031663fdacd5766001546040518263ffffffff1660e01b815260040180828152602001915050600060405180830381600087803b1580156101a257600080fd5b505af11580156101b6573d6000803e3d6000fd5b505050505050565b60015481565b6000546001600160a01b031681565b6000546001600160a01b03163314610223576040805162461bcd60e51b815260206004820152600e60248201526d139bdd08185d5d1a1bdc9a5e995960921b604482015290519081900360640190fd5b6001600160a01b03811661027e576040805162461bcd60e51b815260206004820152601d60248201527f4e6577206f776e657220697320746865207a65726f2061646472657373000000604482015290519081900360640190fd5b600080546040516001600160a01b03808516939216917f8be0079c531659141344cd1fd0a4f28419497f9722a3daafe3b4186f6b6457e091a3600080546001600160a01b0319166001600160a01b0392909216919091179055565b6000546001600160a01b03163314610329576040805162461bcd60e51b815260206004820152600e60248201526d139bdd08185d5d1a1bdc9a5e995960921b604482015290519081900360640190fd5b60018190556040805182815290517f01ca334a07f703320ca75a31f004726757eec021b91a6d98dd7b369f127ecca09181900360200190a15056fea265627a7a72315820a19ede3142dc13d0498a4c8ac04c94958a52923609ebb37df1c962d716f22c7364736f6c63430005100032",
  "source": "pragma solidity >=0.4.21 <0.6.0;\r\n\r\ncontract Migrations {\r\n  // L'adresse du propriétaire du contrat (celui qui a déployé le contrat)\r\n  address public owner;\r\n\r\n  // Dernière migration effectuée, représentée par un entier\r\n  uint public last_completed_migration;\r\n\r\n  // Événement pour notifier lorsqu'une propriété a été transférée\r\n  event OwnershipTransferred(address indexed previousOwner, address indexed newOwner);\r\n\r\n  // Événement pour signaler la complétion d'une migration\r\n  event MigrationCompleted(uint completed);\r\n\r\n  // Le constructeur est exécuté lors du déploiement et définit le propriétaire initial\r\n  constructor() public {\r\n    owner = msg.sender; // Définit l'adresse du propriétaire comme celui qui déploie le contrat\r\n    emit OwnershipTransferred(address(0), owner); // Émet un événement pour le transfert de propriété initial\r\n  }\r\n\r\n  // Modificateur qui restreint l'accès de certaines fonctions au seul propriétaire\r\n  modifier restricted() {\r\n    require(msg.sender == owner, \"Not authorized\"); // Vérifie que l'appelant est le propriétaire\r\n    _;\r\n  }\r\n\r\n  // Fonction qui met à jour la dernière migration effectuée\r\n  function setCompleted(uint completed) public restricted {\r\n    last_completed_migration = completed; // Met à jour la variable `last_completed_migration`\r\n    emit MigrationCompleted(completed); // Émet un événement indiquant qu'une migration a été complétée\r\n  }\r\n\r\n  // Fonction pour mettre à jour l'adresse du contrat de migration si nécessaire\r\n  function upgrade(address new_address) public restricted {\r\n    Migrations upgraded = Migrations(new_address); // Crée une nouvelle instance du contrat à la nouvelle adresse\r\n    upgraded.setCompleted(last_completed_migration); // Met à jour la migration dans le nouveau contrat\r\n  }\r\n\r\n  // Fonction pour transférer la propriété à une nouvelle adresse\r\n  function transferOwnership(address newOwner) public restricted {\r\n    require(newOwner != address(0), \"New owner is the zero address\"); // Vérifie que la nouvelle adresse n'est pas nulle\r\n    emit OwnershipTransferred(owner, newOwner); // Émet un événement pour notifier le transfert de propriété\r\n    owner = newOwner; // Définit la nouvelle adresse comme propriétaire\r\n  }\r\n}\r\n",
  "sourcePath": "D:\\eth-todo-list\\contracts\\Migrations.sol",
  "compiler": {
    "name": "solc",
    "version": "0.5.16+commit.9c3226ce.Emscripten.clang"
  },
  "schemaVersion": "3.4.16",
  "updatedAt": "2024-09-10T20:12:33.913Z",
  "devdoc": {
    "methods": {}
  },
  "userdoc": {
    "methods": {}
  }
}