{
  "contractName": "TodoList",
  "abi": [
    {
      "inputs": [],
      "payable": false,
      "stateMutability": "nonpayable",
      "type": "constructor"
    },
    {
      "anonymous": false,
      "inputs": [
        {
          "indexed": false,
          "internalType": "uint256",
          "name": "id",
          "type": "uint256"
        },
        {
          "indexed": false,
          "internalType": "bool",
          "name": "completed",
          "type": "bool"
        }
      ],
      "name": "TaskCompleted",
      "type": "event"
    },
    {
      "anonymous": false,
      "inputs": [
        {
          "indexed": false,
          "internalType": "uint256",
          "name": "id",
          "type": "uint256"
        },
        {
          "indexed": false,
          "internalType": "string",
          "name": "content",
          "type": "string"
        },
        {
          "indexed": false,
          "internalType": "bool",
          "name": "completed",
          "type": "bool"
        },
        {
          "indexed": false,
          "internalType": "uint256",
          "name": "dueDate",
          "type": "uint256"
        }
      ],
      "name": "TaskCreated",
      "type": "event"
    },
    {
      "anonymous": false,
      "inputs": [
        {
          "indexed": false,
          "internalType": "uint256",
          "name": "id",
          "type": "uint256"
        }
      ],
      "name": "TaskDeleted",
      "type": "event"
    },
    {
      "constant": true,
      "inputs": [],
      "name": "taskCount",
      "outputs": [
        {
          "internalType": "uint256",
          "name": "",
          "type": "uint256"
        }
      ],
      "payable": false,
      "stateMutability": "view",
      "type": "function"
    },
    {
      "constant": true,
      "inputs": [
        {
          "internalType": "uint256",
          "name": "",
          "type": "uint256"
        }
      ],
      "name": "tasks",
      "outputs": [
        {
          "internalType": "uint256",
          "name": "id",
          "type": "uint256"
        },
        {
          "internalType": "string",
          "name": "content",
          "type": "string"
        },
        {
          "internalType": "bool",
          "name": "completed",
          "type": "bool"
        },
        {
          "internalType": "uint256",
          "name": "dueDate",
          "type": "uint256"
        }
      ],
      "payable": false,
      "stateMutability": "view",
      "type": "function"
    },
    {
      "constant": false,
      "inputs": [
        {
          "internalType": "string",
          "name": "_content",
          "type": "string"
        },
        {
          "internalType": "uint256",
          "name": "_dueDate",
          "type": "uint256"
        }
      ],
      "name": "createTask",
      "outputs": [],
      "payable": false,
      "stateMutability": "nonpayable",
      "type": "function"
    },
    {
      "constant": false,
      "inputs": [
        {
          "internalType": "uint256",
          "name": "_id",
          "type": "uint256"
        }
      ],
      "name": "toggleCompleted",
      "outputs": [],
      "payable": false,
      "stateMutability": "nonpayable",
      "type": "function"
    },
    {
      "constant": false,
      "inputs": [
        {
          "internalType": "uint256",
          "name": "_id",
          "type": "uint256"
        }
      ],
      "name": "deleteTask",
      "outputs": [],
      "payable": false,
      "stateMutability": "nonpayable",
      "type": "function"
    }
  ],
  "bytecode": "0x60806040526000805534801561001457600080fd5b5060408051808201909152601c81527f436865636b206f75742064617070756e69766572736974792e636f6d000000006020820152610061906201518042016001600160e01b0361006616565b61023f565b6000805460019081018083556040805160808101825282815260208082018881528284018790526060830188905293865284815291909420845181559151805192936100ba939085019291909101906101a4565b5060408201518160020160006101000a81548160ff021916908315150217905550606082015181600301559050507ff844eff5bb3b551f3ab172f7edad2073ce268e60cbb5bf8a7b6d5e41154b0f4660005483600084604051808581526020018060200184151515158152602001838152602001828103825285818151815260200191508051906020019080838360005b8381101561016357818101518382015260200161014b565b50505050905090810190601f1680156101905780820380516001836020036101000a031916815260200191505b509550505050505060405180910390a15050565b828054600181600116156101000203166002900490600052602060002090601f016020900481019282601f106101e557805160ff1916838001178555610212565b82800160010185558215610212579182015b828111156102125782518255916020019190600101906101f7565b5061021e929150610222565b5090565b61023c91905b8082111561021e5760008155600101610228565b90565b6107248061024e6000396000f3fe608060405234801561001057600080fd5b50600436106100575760003560e01c806304fe2b341461005c578063455f502414610106578063560f3192146101235780638d97767214610140578063b6cb58a5146101ee575b600080fd5b6101046004803603604081101561007257600080fd5b81019060208101813564010000000081111561008d57600080fd5b82018360208201111561009f57600080fd5b803590602001918460018302840111640100000000831117156100c157600080fd5b91908080601f0160208091040260200160405190810160405280939291908181526020018383808284376000920191909152509295505091359250610208915050565b005b6101046004803603602081101561011c57600080fd5b5035610346565b6101046004803603602081101561013957600080fd5b50356104bb565b61015d6004803603602081101561015657600080fd5b5035610527565b604051808581526020018060200184151515158152602001838152602001828103825285818151815260200191508051906020019080838360005b838110156101b0578181015183820152602001610198565b50505050905090810190601f1680156101dd5780820380516001836020036101000a031916815260200191505b509550505050505060405180910390f35b6101f66105dd565b60408051918252519081900360200190f35b60008054600190810180835560408051608081018252828152602080820188815282840187905260608301889052938652848152919094208451815591518051929361025c939085019291909101906105e3565b5060408201518160020160006101000a81548160ff021916908315150217905550606082015181600301559050507ff844eff5bb3b551f3ab172f7edad2073ce268e60cbb5bf8a7b6d5e41154b0f4660005483600084604051808581526020018060200184151515158152602001838152602001828103825285818151815260200191508051906020019080838360005b838110156103055781810151838201526020016102ed565b50505050905090810190601f1680156103325780820380516001836020036101000a031916815260200191505b509550505050505060405180910390a15050565b61034e610661565b60008281526001602081815260409283902083516080810185528154815281840180548651600296821615610100026000190190911695909504601f810185900485028601850190965285855290949193858401939092908301828280156103f75780601f106103cc576101008083540402835291602001916103f7565b820191906000526020600020905b8154815290600101906020018083116103da57829003601f168201915b5050509183525050600282015460ff1615156020808301919091526003909201546040918201528281018051159052600085815260018084529190208351815583830151805194955085949193610453938501929101906105e3565b5060408281015160028301805460ff1916911515919091179055606090920151600390910155818101518151848152901515602082015281517fe21fa966ca5cd02748c0752352d18c48165e61cb55b4c29cccf924b5a95fcff1929181900390910190a15050565b6000818152600160208190526040822082815591906104dc9083018261068b565b5060028101805460ff1916905560006003909101556040805182815290517fd078b251d950cc55c44340be1db732337ef4939a76e1367ee271ad2cb19c46af9181900360200190a150565b600160208181526000928352604092839020805481840180548651600296821615610100026000190190911695909504601f810185900485028601850190965285855290949193929091908301828280156105c35780601f10610598576101008083540402835291602001916105c3565b820191906000526020600020905b8154815290600101906020018083116105a657829003601f168201915b505050506002830154600390930154919260ff1691905084565b60005481565b828054600181600116156101000203166002900490600052602060002090601f016020900481019282601f1061062457805160ff1916838001178555610651565b82800160010185558215610651579182015b82811115610651578251825591602001919060010190610636565b5061065d9291506106d2565b5090565b60405180608001604052806000815260200160608152602001600015158152602001600081525090565b50805460018160011615610100020316600290046000825580601f106106b157506106cf565b601f0160209004906000526020600020908101906106cf91906106d2565b50565b6106ec91905b8082111561065d57600081556001016106d8565b9056fea265627a7a72315820264de389c9d1a198440514869c8e47452d6b5c07047611b543377813c52f703f64736f6c63430005100032",
  "source": "pragma solidity ^0.5.0;\r\n\r\ncontract TodoList {\r\n    uint public taskCount = 0;\r\n\r\n    struct Task {\r\n        uint id;\r\n        string content;\r\n        bool completed;\r\n        uint dueDate;\r\n    }\r\n\r\n    mapping(uint => Task) public tasks;\r\n\r\n    event TaskCreated(\r\n        uint id,\r\n        string content,\r\n        bool completed,\r\n        uint dueDate\r\n    );\r\n\r\n    event TaskCompleted(\r\n        uint id,\r\n        bool completed\r\n    );\r\n\r\n    event TaskDeleted(\r\n        uint id\r\n    );\r\n\r\n    constructor() public {\r\n        createTask(\"Check out dappuniversity.com\", now + 1 days);\r\n    }\r\n\r\n    function createTask(string memory _content, uint _dueDate) public {\r\n        taskCount += 1;\r\n        tasks[taskCount] = Task(taskCount, _content, false, _dueDate);\r\n        emit TaskCreated(taskCount, _content, false, _dueDate);\r\n    }\r\n\r\n    function toggleCompleted(uint _id) public {\r\n        Task memory _task = tasks[_id];\r\n        _task.completed = !_task.completed;\r\n        tasks[_id] = _task;\r\n        emit TaskCompleted(_id, _task.completed);\r\n    }\r\n\r\n    function deleteTask(uint _id) public {\r\n        delete tasks[_id];\r\n        emit TaskDeleted(_id);\r\n    }\r\n\r\n}\r\n",
  "sourcePath": "D:\\eth-todo-list\\contracts\\TodoList.sol",
  "compiler": {
    "name": "solc",
    "version": "0.5.16+commit.9c3226ce.Emscripten.clang"
  },
  "schemaVersion": "3.4.16",
  "updatedAt": "2024-09-10T20:12:33.951Z",
  "devdoc": {
    "methods": {}
  },
  "userdoc": {
    "methods": {}
  }
}